---
title: Submit Unbonding Data
slug: /guides/staking-api/polygon/undelegate/submit-unbonding-data
---

After collecting the required inputs, send a `PUT` request to `/api/v1/flows/[:flow_id]/next` to proceed to the next step.

### Parameters

- `name` &mdash; `string` Name of the action to execute (required).
- `inputs` &mdash; `object`
  - `validator_address` &mdash; `string` The validator smart contract address from which MATIC will be undelegated (required).
  - `delegator_address` &mdash; `string` The delegator address (required).
  - `amount` &mdash; `number` The amount of MATIC to be undelegated (required).

### Sample cURL Request

```bash {5-10}
curl -X PUT 'https://matic-slate.datahub.figment.io/api/v1/flows/07d6752c-c412-4cfa-a12c-65feab06acd6/next' \
-H 'Content-Type: application/json' \
-H 'Authorization: <api_key>' \
-d '{
  "name": "create_unbond_tx",
  "inputs": {
    "delegator_address": "0x542138451d0953Aa082dE659d2A1ca1e5EF452Bf",
    "validator_address": "0x15ED57Ca28cbebb58d9c6C62F570046BC089bC66",
    "amount": "1"
  }
}'
```

### Response

The response indicates three possible `actions`:

- `refresh_unbond_tx` &mdash; If you need to get a fresh version of the transaction payload (i.e., if the nonce needs to be updated).
- `sign_unbond_tx` &mdash; Submit a signed transaction payload ready to be broadcast to the network.
- `confirm_unbond_tx_by_hash` &mdash; Submit a previously completed transaction hash to continue the flow.

We will choose `sign_unbond_tx`, which indicates one input to collect:

- `transaction_payload` &mdash; the signed transaction payload ready to be broadcast to the network.

#### Sample Response

```json {4,7,139,142,155,203,206}
{
  "id": "b46668f2-d6f3-4980-b3ca-c4957bbffd25",
  "operation": "unstaking",
  "state": "unbond_tx_signature",
  "actions": [
    {
      "name": "refresh_unbond_tx",
      "inputs": [
        {
          "name": "delegator_address",
          "display": "Delegator Address",
          "description": "",
          "type": "string",
          "validations": [
            {
              "type": "presence",
              "options": {}
            }
          ],
          "array": false,
          "default_value": "0x6BeA1177Ff310983f84D4Fc77b7467a3bD5626ed"
        },
        {
          "name": "validator_address",
          "display": "Validator Address",
          "description": "",
          "type": "string",
          "validations": [
            {
              "type": "presence",
              "options": {}
            }
          ],
          "array": false,
          "default_value": "0x15ED57Ca28cbebb58d9c6C62F570046BC089bC66"
        },
        {
          "name": "amount",
          "display": "Amount",
          "description": "in MATIC",
          "type": "string",
          "validations": [
            {
              "type": "presence",
              "options": {}
            },
            {
              "type": "numericality",
              "options": {
                "greater_than": 0
              }
            }
          ],
          "array": false,
          "default_value": "1.0"
        },
        {
          "name": "max_shares_to_burn",
          "display": "Max Shares To Burn",
          "description": "",
          "type": "string",
          "validations": [
            {
              "type": "numericality",
              "options": {
                "allow_nil": true,
                "only_integer": true,
                "greater_than_or_equal_to": 0
              }
            }
          ],
          "array": false,
          "default_value": 1e18
        },
        {
          "name": "max_slippage_percentage",
          "display": "Max Slippage Percentage",
          "description": "",
          "type": "string",
          "validations": [
            {
              "type": "numericality",
              "options": {
                "allow_nil": true,
                "only_integer": true,
                "greater_than_or_equal_to": 0,
                "less_than_or_equal_to": 100
              }
            }
          ],
          "array": false,
          "default_value": 0
        },
        {
          "name": "gas_limit",
          "display": "Gas Limit",
          "description": "",
          "type": "string",
          "validations": [
            {
              "type": "numericality",
              "options": {
                "allow_blank": true,
                "only_integer": true,
                "greater_than": 0
              }
            }
          ],
          "array": false,
          "default_value": null
        },
        {
          "name": "gas_price",
          "display": "Gas Price",
          "description": "",
          "type": "string",
          "validations": [
            {
              "type": "numericality",
              "options": {
                "allow_blank": true,
                "greater_than": 0
              }
            },
            {
              "type": "precision",
              "options": {
                "allow_blank": true,
                "max": 9
              }
            }
          ],
          "array": false,
          "default_value": null
        }
      ]
    },
    {
      "name": "sign_unbond_tx",
      "inputs": [
        {
          "name": "transaction_payload",
          "display": "Transaction Payload",
          "description": "",
          "type": "signed_transaction",
          "validations": [
            {
              "type": "sign_payload",
              "options": {}
            }
          ],
          "array": false,
          "default_value": null,
          "signers": ["0x6BeA1177Ff310983f84D4Fc77b7467a3bD5626ed"],
          "transaction_payload": "0x02f86e05028459682f008503a935a902830478739415ed57ca28cbebb58d9c6c62f570046bc089bc6680b844c83ec04d0000000000000000000000000000000000000000000000000de0b6b3a76400000000000000000000000000000000000000000000000000000de0b6b3a7640000c0"
        },
        {
          "name": "signatures",
          "display": "Signatures",
          "description": "",
          "type": "array_of_signatures",
          "validations": [],
          "array": true,
          "default_value": null,
          "element_type": "signature_data",
          "signers": ["0x6BeA1177Ff310983f84D4Fc77b7467a3bD5626ed"],
          "transaction_payload": "0x02f86e05028459682f008503a935a902830478739415ed57ca28cbebb58d9c6c62f570046bc089bc6680b844c83ec04d0000000000000000000000000000000000000000000000000de0b6b3a76400000000000000000000000000000000000000000000000000000de0b6b3a7640000c0",
          "signing_payload": "0x93ebb0e6cdbc4583093448ab562e77c4ae1400e97c4a0fd5177434380e0dd249",
          "inputs": [
            {
              "name": "account_address",
              "display": "Account Address",
              "description": "",
              "type": "string",
              "validations": [
                {
                  "type": "presence",
                  "options": {}
                }
              ],
              "array": false,
              "default_value": null
            },
            {
              "name": "signature",
              "display": "Signature",
              "description": "",
              "type": "string",
              "validations": [
                {
                  "type": "presence",
                  "options": {}
                }
              ],
              "array": false,
              "default_value": null
            }
          ]
        }
      ]
    },
    {
      "name": "confirm_unbond_tx_by_hash",
      "inputs": [
        {
          "name": "hash",
          "display": "Hash",
          "description": "",
          "type": "string",
          "validations": [
            {
              "type": "presence",
              "options": {}
            }
          ],
          "array": false,
          "default_value": null
        },
        {
          "name": "block_number",
          "display": "Block Number",
          "description": "",
          "type": "integer",
          "validations": [],
          "array": false,
          "default_value": null
        }
      ]
    }
  ],
  "data": {
    "delegator_address": "0x6BeA1177Ff310983f84D4Fc77b7467a3bD5626ed",
    "validator_address": "0x15ED57Ca28cbebb58d9c6C62F570046BC089bC66",
    "amount": "1.0",
    "max_shares_to_burn": 1e18,
    "max_slippage_percentage": 0,
    "exchange_rate": "100000000000000000000000000000.0",
    "exchange_rate_precision": "100000000000000000000000000000.0",
    "unbond_transaction": {
      "raw": "0x02f86e05028459682f008503a935a902830478739415ed57ca28cbebb58d9c6c62f570046bc089bc6680b844c83ec04d0000000000000000000000000000000000000000000000000de0b6b3a76400000000000000000000000000000000000000000000000000000de0b6b3a7640000c0",
      "signing_payload": "0x93ebb0e6cdbc4583093448ab562e77c4ae1400e97c4a0fd5177434380e0dd249",
      "signed": null,
      "hash": null,
      "status": null,
      "error": null,
      "signatures": null,
      "block_time": null,
      "gas_limit": null,
      "gas_price": null
    },
    "claim_transaction": null,
    "estimated_unbonded_at": null,
    "unbond_checkpoint": null,
    "unbond_nonce": null
  },
  "network_code": "polygon",
  "chain_code": "testnet",
  "created_at": "2023-03-02T19:55:55.101Z",
  "updated_at": "2023-03-02T20:01:17.608Z"
}
```

:::info note

Make sure to save the `transaction_payload` from this response, which is what needs to be signed in the next step.

:::
